{
  "_format": "hh-sol-artifact-1",
  "contractName": "Bank",
  "sourceName": "contracts/BankContract.sol",
  "abi": [
    {
      "inputs": [],
      "stateMutability": "nonpayable",
      "type": "constructor"
    },
    {
      "inputs": [],
      "name": "bankName",
      "outputs": [
        {
          "internalType": "string",
          "name": "",
          "type": "string"
        }
      ],
      "stateMutability": "view",
      "type": "function"
    },
    {
      "inputs": [],
      "name": "bankOwner",
      "outputs": [
        {
          "internalType": "address",
          "name": "",
          "type": "address"
        }
      ],
      "stateMutability": "view",
      "type": "function"
    },
    {
      "inputs": [
        {
          "internalType": "address",
          "name": "",
          "type": "address"
        }
      ],
      "name": "customerBalance",
      "outputs": [
        {
          "internalType": "uint256",
          "name": "",
          "type": "uint256"
        }
      ],
      "stateMutability": "view",
      "type": "function"
    },
    {
      "inputs": [],
      "name": "depositMoney",
      "outputs": [],
      "stateMutability": "payable",
      "type": "function"
    },
    {
      "inputs": [],
      "name": "donate",
      "outputs": [],
      "stateMutability": "payable",
      "type": "function"
    },
    {
      "inputs": [],
      "name": "getBankBalance",
      "outputs": [
        {
          "internalType": "uint256",
          "name": "",
          "type": "uint256"
        }
      ],
      "stateMutability": "view",
      "type": "function"
    },
    {
      "inputs": [],
      "name": "getCustomerBalance",
      "outputs": [
        {
          "internalType": "uint256",
          "name": "",
          "type": "uint256"
        }
      ],
      "stateMutability": "view",
      "type": "function"
    },
    {
      "inputs": [],
      "name": "getOwnerBalance",
      "outputs": [
        {
          "internalType": "uint256",
          "name": "",
          "type": "uint256"
        }
      ],
      "stateMutability": "view",
      "type": "function"
    },
    {
      "inputs": [
        {
          "internalType": "address",
          "name": "",
          "type": "address"
        }
      ],
      "name": "ownerBalance",
      "outputs": [
        {
          "internalType": "uint256",
          "name": "",
          "type": "uint256"
        }
      ],
      "stateMutability": "view",
      "type": "function"
    },
    {
      "inputs": [
        {
          "internalType": "string",
          "name": "_name",
          "type": "string"
        }
      ],
      "name": "setBankName",
      "outputs": [],
      "stateMutability": "nonpayable",
      "type": "function"
    },
    {
      "inputs": [
        {
          "internalType": "address payable",
          "name": "_to",
          "type": "address"
        },
        {
          "internalType": "uint256",
          "name": "_total",
          "type": "uint256"
        }
      ],
      "name": "withDrawMoney",
      "outputs": [],
      "stateMutability": "payable",
      "type": "function"
    }
  ],
  "bytecode": "0x608060405234801561001057600080fd5b5033600160006101000a81548173ffffffffffffffffffffffffffffffffffffffff021916908373ffffffffffffffffffffffffffffffffffffffff160217905550610fae806100616000396000f3fe60806040526004361061009c5760003560e01c80637b83b50b116100645780637b83b50b14610167578063a853409a14610192578063af90fdfd146101bd578063b39d7b7c146101fa578063e147aaa714610216578063ed88c68e146102415761009c565b806316c05aa2146100a157806327d35801146100ab57806337ebe47b146100d6578063590791f214610113578063701426901461013e575b600080fd5b6100a961024b565b005b3480156100b757600080fd5b506100c06102e7565b6040516100cd9190610bef565b60405180910390f35b3480156100e257600080fd5b506100fd60048036038101906100f891906108d9565b610375565b60405161010a9190610cb1565b60405180910390f35b34801561011f57600080fd5b5061012861038d565b6040516101359190610cb1565b60405180910390f35b34801561014a57600080fd5b506101656004803603810190610160919061093e565b6103f6565b005b34801561017357600080fd5b5061017c6104a0565b6040516101899190610cb1565b60405180910390f35b34801561019e57600080fd5b506101a7610538565b6040516101b49190610cb1565b60405180910390f35b3480156101c957600080fd5b506101e460048036038101906101df91906108d9565b61057f565b6040516101f19190610cb1565b60405180910390f35b610214600480360381019061020f9190610902565b610597565b005b34801561022257600080fd5b5061022b6106ba565b6040516102389190610bd4565b60405180910390f35b6102496106e0565b005b600034141561028f576040517f08c379a000000000000000000000000000000000000000000000000000000000815260040161028690610c31565b60405180910390fd5b34600360003373ffffffffffffffffffffffffffffffffffffffff1673ffffffffffffffffffffffffffffffffffffffff16815260200190815260200160002060008282546102de9190610d49565b92505081905550565b600280546102f490610e63565b80601f016020809104026020016040519081016040528092919081815260200182805461032090610e63565b801561036d5780601f106103425761010080835404028352916020019161036d565b820191906000526020600020905b81548152906001019060200180831161035057829003601f168201915b505050505081565b60036020528060005260406000206000915090505481565b600060046000600160009054906101000a900473ffffffffffffffffffffffffffffffffffffffff1673ffffffffffffffffffffffffffffffffffffffff1673ffffffffffffffffffffffffffffffffffffffff16815260200190815260200160002054905090565b600160009054906101000a900473ffffffffffffffffffffffffffffffffffffffff1673ffffffffffffffffffffffffffffffffffffffff163373ffffffffffffffffffffffffffffffffffffffff1614610486576040517f08c379a000000000000000000000000000000000000000000000000000000000815260040161047d90610c71565b60405180910390fd5b806002908051906020019061049c92919061078f565b5050565b6000600160009054906101000a900473ffffffffffffffffffffffffffffffffffffffff1673ffffffffffffffffffffffffffffffffffffffff163373ffffffffffffffffffffffffffffffffffffffff1614610532576040517f08c379a000000000000000000000000000000000000000000000000000000000815260040161052990610c91565b60405180910390fd5b47905090565b6000600360003373ffffffffffffffffffffffffffffffffffffffff1673ffffffffffffffffffffffffffffffffffffffff16815260200190815260200160002054905090565b60046020528060005260406000206000915090505481565b600360003373ffffffffffffffffffffffffffffffffffffffff1673ffffffffffffffffffffffffffffffffffffffff16815260200190815260200160002054811115610619576040517f08c379a000000000000000000000000000000000000000000000000000000000815260040161061090610c11565b60405180910390fd5b80600360003373ffffffffffffffffffffffffffffffffffffffff1673ffffffffffffffffffffffffffffffffffffffff16815260200190815260200160002060008282546106689190610d9f565b925050819055508173ffffffffffffffffffffffffffffffffffffffff166108fc829081150290604051600060405180830381858888f193505050501580156106b5573d6000803e3d6000fd5b505050565b600160009054906101000a900473ffffffffffffffffffffffffffffffffffffffff1681565b6000341415610724576040517f08c379a000000000000000000000000000000000000000000000000000000000815260040161071b90610c51565b60405180910390fd5b600160009054906101000a900473ffffffffffffffffffffffffffffffffffffffff1673ffffffffffffffffffffffffffffffffffffffff166108fc349081150290604051600060405180830381858888f1935050505015801561078c573d6000803e3d6000fd5b50565b82805461079b90610e63565b90600052602060002090601f0160209004810192826107bd5760008555610804565b82601f106107d657805160ff1916838001178555610804565b82800160010185558215610804579182015b828111156108035782518255916020019190600101906107e8565b5b5090506108119190610815565b5090565b5b8082111561082e576000816000905550600101610816565b5090565b600061084561084084610cfd565b610ccc565b90508281526020810184848401111561085d57600080fd5b610868848285610e21565b509392505050565b60008135905061087f81610f33565b92915050565b60008135905061089481610f4a565b92915050565b600082601f8301126108ab57600080fd5b81356108bb848260208601610832565b91505092915050565b6000813590506108d381610f61565b92915050565b6000602082840312156108eb57600080fd5b60006108f984828501610870565b91505092915050565b6000806040838503121561091557600080fd5b600061092385828601610885565b9250506020610934858286016108c4565b9150509250929050565b60006020828403121561095057600080fd5b600082013567ffffffffffffffff81111561096a57600080fd5b6109768482850161089a565b91505092915050565b61098881610dd3565b82525050565b600061099982610d2d565b6109a38185610d38565b93506109b3818560208601610e30565b6109bc81610f22565b840191505092915050565b60006109d4602583610d38565b91507f596f75206861766520696e7375666669656e742066756e647320746f2077697460008301527f68647261770000000000000000000000000000000000000000000000000000006020830152604082019050919050565b6000610a3a602983610d38565b91507f596f75206e65656420746f206465706f73697420736f6d6520616d6f756e742060008301527f6f66206d6f6e65792100000000000000000000000000000000000000000000006020830152604082019050919050565b6000610aa0602883610d38565b91507f596f75206e65656420746f20646f6e61746520736f6d6520616d6f756e74206f60008301527f66206d6f6e6579210000000000000000000000000000000000000000000000006020830152604082019050919050565b6000610b06603183610d38565b91507f596f75206d75737420626520746865206f776e657220746f207365742074686560008301527f206e616d65206f66207468652062616e6b0000000000000000000000000000006020830152604082019050919050565b6000610b6c603683610d38565b91507f596f75206d75737420626520746865206f776e6572206f66207468652062616e60008301527f6b20746f2073656520616c6c2062616c616e6365732e000000000000000000006020830152604082019050919050565b610bce81610e17565b82525050565b6000602082019050610be9600083018461097f565b92915050565b60006020820190508181036000830152610c09818461098e565b905092915050565b60006020820190508181036000830152610c2a816109c7565b9050919050565b60006020820190508181036000830152610c4a81610a2d565b9050919050565b60006020820190508181036000830152610c6a81610a93565b9050919050565b60006020820190508181036000830152610c8a81610af9565b9050919050565b60006020820190508181036000830152610caa81610b5f565b9050919050565b6000602082019050610cc66000830184610bc5565b92915050565b6000604051905081810181811067ffffffffffffffff82111715610cf357610cf2610ef3565b5b8060405250919050565b600067ffffffffffffffff821115610d1857610d17610ef3565b5b601f19601f8301169050602081019050919050565b600081519050919050565b600082825260208201905092915050565b6000610d5482610e17565b9150610d5f83610e17565b9250827fffffffffffffffffffffffffffffffffffffffffffffffffffffffffffffffff03821115610d9457610d93610e95565b5b828201905092915050565b6000610daa82610e17565b9150610db583610e17565b925082821015610dc857610dc7610e95565b5b828203905092915050565b6000610dde82610df7565b9050919050565b6000610df082610df7565b9050919050565b600073ffffffffffffffffffffffffffffffffffffffff82169050919050565b6000819050919050565b82818337600083830152505050565b60005b83811015610e4e578082015181840152602081019050610e33565b83811115610e5d576000848401525b50505050565b60006002820490506001821680610e7b57607f821691505b60208210811415610e8f57610e8e610ec4565b5b50919050565b7f4e487b7100000000000000000000000000000000000000000000000000000000600052601160045260246000fd5b7f4e487b7100000000000000000000000000000000000000000000000000000000600052602260045260246000fd5b7f4e487b7100000000000000000000000000000000000000000000000000000000600052604160045260246000fd5b6000601f19601f8301169050919050565b610f3c81610dd3565b8114610f4757600080fd5b50565b610f5381610de5565b8114610f5e57600080fd5b50565b610f6a81610e17565b8114610f7557600080fd5b5056fea26469706673582212204c49be1ae22e7fdf93e6a9254251f879a5450676645efeb10113e3b4901f3e5b64736f6c63430008000033",
  "linkReferences": {},
  "deployedLinkReferences": {}
}